:020000040800F2
:1000000060B10120890200089702000899020008E7
:100010009B0200089D0200089F02000800000000EB
:10002000000000000000000000000000A102000825
:10003000A302000800000000A5020008A7020008B3
:10004000A9020008A9020008A9020008A9020008E4
:10005000A9020008A9020008A9020008A9020008D4
:10006000A9020008A9020008A9020008A9020008C4
:10007000A9020008A9020008A9020008A9020008B4
:10008000A9020008A9020008A9020008A9020008A4
:10009000A9020008A9020008A9020008A902000894
:1000A000A9020008A9020008A9020008A902000884
:1000B000A902000879AC0008D5AC0008A902000824
:1000C000A9020008A9020008A9020008A902000864
:1000D000A9020008B5AD0008A9020008A90200089D
:1000E000A9020008A9020008A9020008A902000844
:1000F000A9020008A9020008A9020008A902000834
:10010000A9020008A902000811AD0008A902000810
:10011000A9020008A9020008A9020008A902000813
:10012000A9020008A9020008A9020008A902000803
:10013000A9020008A9020008A9020008A9020008F3
:10014000A9020008A9020008A9020008A9020008E3
:10015000A9020008A9020008A9020008A9020008D3
:10016000A9020008A9020008A9020008A9020008C3
:10017000A9020008A902000811130008A90200083A
:10018000A9020008A902000800F002F800F06DF8CA
:100190000AA090E8000C82448344AAF10107DA45E2
:1001A00001D100F062F8AFF2090EBAE80F0013F0C7
:1001B000010F18BFFB1A43F001031847A08F01007D
:1001C000C08F01000A444FF0000C10F8013B13F0FF
:1001D000070408BF10F8014B1D1108BF10F8015BA0
:1001E000641E05D010F8016B641E01F8016BF9D193
:1001F00013F0080F1EBF10F8014BAD1C0C1B09D1EA
:100200006D1E58BF01F801CBFAD505E014F8016B5B
:1002100001F8016B6D1EF9D59142D6D370470000ED
:100220000023002400250026103A28BF78C1FBD8FF
:10023000520728BF30C148BF0B607047642900F0E7
:10024000D785752900F0D485782900F00D866329BB
:1002500000F06C87732900F07187002070471FB58C
:100260000EF0ABFA1FBD10B510BD00F0A1FF114696
:10027000FFF7F5FF0BF014FA00F0BFFF03B4FFF730
:10028000F2FF03BC0BF043F80B48016841F4700126
:1002900001600A480047FEE7FEE7FEE7FEE7FEE7EB
:1002A000FEE7FEE7FEE7FEE7FEE70000044805493B
:1002B000034A054B7047000088ED00E08901000803
:1002C00060AD012060B1012060AD0120DFED300A9A
:1002D000B5EEC00A60EE200ABDEEE01A11EE100A7B
:1002E000F1EE10FA38BF401E00EE100A9FED291AF9
:1002F000B8EEC00A70EEC00A20EE810ABCEEC00A59
:1003000010EE100A00EE100A0028B8EEC00A10EE37
:10031000810AB8BF002004DBB0F5807FC8BF4FF46E
:1003200080701D4960EE000AB6EE001ADFED1C2A4F
:100330009FED1A2A60EE011A60EE225A20EE813AF1
:1003400020EE022A21EEA01A01EB800073EE655A1E
:1003500062EE202AB7EE006A33EE003AD0EC043A9F
:1003600076EE611A71EE600A35EEE20A33EE413A3A
:1003700032EEC21A70EEA10A20EE230A64EE831A4E
:1003800004EE200A45EE011A31EE800A70470000A3
:1003900083F9223E0000804378010108ABAA2A3E7F
:1003A000ABAAAA3E93082BD090ED000A81ED000A7B
:1003B00090ED020A81ED020A90ED040A81ED040A33
:1003C00090ED060A81ED060A90ED010AD0ED030AD0
:1003D000D0ED051A90ED071AB1EE400A81ED010A41
:1003E000F1EE600AF1EE611AC1ED030AB1EE410AC5
:1003F000C1ED051A81ED070A203020315B1ED3D1F3
:1004000002F00302B2F1004F0DD300BFB0EC010ABD
:10041000521EA1EC010AB0EC010AB1EE400AA1ECB7
:10042000010AF3D17047002AD8BF7047083808394D
:1004300012F0010F0BD090ED020A81ED020A90ED4F
:10044000030A0830B1EE400A81ED030A0831520870
:1004500008BF704790ED020A81ED020A90ED030A91
:10046000B1EE400A81ED030A90ED040A81ED040A21
:1004700090ED050A1030B1EE400A81ED050A103109
:10048000521EE7D1704700005FEA930C56D000BFC0
:10049000D1ED000AD0ED002A90ED011AD0ED023A1C
:1004A00022EEA00A21EE202AD1ED010AD1ED021A96
:1004B00091ED034A01EE600A90ED033A02EEA02AA4
:1004C00023EEA11A63EE840AD0ED042AD1ED044A8A
:1004D00082ED000A03EE441AD0ED053A43EE210AFC
:1004E00082ED012A91ED053A22EEA40A63EEA41AE8
:1004F00082ED021AC2ED030A90ED062A03EEC30A4A
:10050000D1ED060A42EE831A90ED073A22EE201A48
:10051000D1ED072A63EE200A82ED040A03EE621A87
:10052000C2ED051A42EE220A2030203182ED061A71
:10053000C2ED070A2032BCF1010CA9D113F003036C
:1005400008BF7047B0EC011A5B1EF1EC010AF0EC39
:10055000011AB1EC010A21EE202A01EEC02A21EE97
:10056000000A01EEA00AA2EC012AA2EC010AE9D1DC
:10057000704700002DE9F00F5FEA510C32D00446BD
:1005800000EBCC0516466746D4ED012A95ED012A0D
:10059000D4ED001A95ED001A72EEC20A72EE222A0C
:1005A00031EEC10A96ED002A96ED014A31EE811A2C
:1005B00022EE003A64EE203A62EE200A24EE000AAF
:1005C00084ED001A33EE231AC4ED012A30EEC00A7E
:1005D00085ED001A083485ED010A083506EBC306DF
:1005E0007F1ED1D14FF6FF7A0AEA430BE146BCF1F8
:1005F000020F44D966464FF000084FEA5C0C4446AF
:1006000002EBC803D844D3ED000A93ED010A234658
:1006100003EB0C0700EBC30500EBC70795ED001AD1
:10062000D7ED001AD5ED012A97ED013A31EE212AD6
:1006300031EE611A72EEC31A73EE222A85ED002A9A
:1006400021EE203A61EE803A61EEA01A21EE001A06
:10065000C5ED012A33EE232A334431EEC11A87ED6A
:10066000002A8B4287ED011AD2D3641CA445C7D857
:100670004FEA59090AEA4B0BB9F1020FBAD8491CE3
:1006800001298EBF4908BDE8F00F704790ED002AA0
:10069000D0ED021A90ED011AD0ED032A32EE610A74
:1006A00072EE211A71EE620A32EE811AC0ED001A62
:1006B00080ED011A80ED020AC0ED030A1030491ED8
:1006C000E4D1BDE8F00F70472DE9F00F4FEA510972
:1006D0005FEA090C32D0044600EBCC0516464F46C3
:1006E00094ED002AD5ED001A94ED013AD5ED012ADA
:1006F00072EE610AD6ED004A33EE621A96ED014AB7
:1007000072EE832A24EEA03A64EE013A72EE211AC8
:1007100024EE811A64EE200AC4ED001A73EE631A07
:10072000C4ED012A71EE200AC5ED001A0834C5EDAA
:10073000010A083506EBC3067F1ED1D14FF6FF7ABA
:100740000AEA430BB9F1020F45D967464FF000089A
:100750004FEA5C0C4FEA080502EBC803D844D3ED1E
:10076000000AD3ED011A2B4603EB0C0400EBC30681
:1007700000EBC40496ED002A94ED001A96ED013AC0
:10078000D4ED012A72EE013A32EE411A33EE622ABA
:1007900032EE834AC6ED003A61EE202A22EE213A7B
:1007A00022EE202A21EE211A86ED014A72EEC32A9A
:1007B0003B4432EE011AC4ED002A8B4284ED011A4B
:1007C000D2D36D1CAC45C7D84FEA59090AEA4B0B86
:1007D000B9F1020FB9D8491C01298EBF4908BDE8FB
:1007E000F00F7047D0ED002AD0ED021A90ED031AF9
:1007F00090ED013A72EEE10A72EEA11A20EE802A23
:1008000071EE030A33EE411A61EE801A60EE800A3F
:1008100021EE001AC0ED001AC0ED010A80ED022A97
:1008200080ED031A1030491EDCD1BDE8F00F70478F
:1008300070B504460D4680782188A3896268012836
:100840000ED02846FFF796FEE078012818BF70BD4D
:10085000E28921882846A368BDE8704000F078B995
:1008600094ED040A2846FFF72FFFEDE710B401804E
:10087000384C446082704FF0000CC370B1F5807F3B
:100880003AD008DC102959D020294DD0402943D036
:1008900080290CD138E0B1F5007F25D0B1F5806F0B
:1008A0001AD0B1F5006F0FD0B1F5805F04D04FF0D2
:1008B000FF3C10BC6046704701218181C1812649FF
:1008C0009FED260A816036E002218181C1812449A1
:1008D0009FED240A81602EE004218181C18122499B
:1008E0009FED220A816026E008218181C181204993
:1008F0009FED200A81601EE010218181C1811E4987
:100900009FED1E0A816016E020218181C1811C4972
:100910009FED1C0A81600EE040218181C1811A494E
:100920009FED1A0A816006E080218181C18118490A
:100930009FED180A816080ED040ABAE74FF48071D8
:100940008181C18114499FED150A816080ED040AFF
:10095000AFE70000880D0108880501080000803914
:100960008A0501080000003A8E0501080000803A5F
:10097000960501080000003BA60501080000803B29
:10098000C60501080000003C060601080000803C86
:10099000860601080000003D860701080000803D32
:1009A00030B49FED2A0A8B0812D000BFF0EC011A78
:1009B0005B1EF0EC010AB0EC011A30EE210AB0EC3B
:1009C000012A30EE200A30EE010A30EE020AEDD1A3
:1009D00001F00303B3F1004F07D300BFF0EC010AAD
:1009E0005B1E30EE800AF9D126E05C1E002C1BDD78
:1009F000A0F1040C13F0010F05D10CF1040CDCED97
:100A0000000A30EE800ADCED010A64100CD000BF51
:100A10000CF1080C30EE200A9CED001ADCED010A06
:100A2000641E30EE010AF3D15B1E05D400EB830097
:100A3000D0ED000A30EE800A00EE901AF8EE600A5F
:100A400080EE201A82ED001A30BC704700000000D2
:100A5000DFED3E1A8B08F0EE610AB0EE600A19D0A5
:100A6000B0EC011A5B1E30EE812A01EE010AF0ECB7
:100A7000010A32EE201A00EEA00AF0EC010A31EE73
:100A8000202A00EEA00AB0EC011A01EE010A72EE73
:100A9000010AE5D101F00303B3F1004F09D300BF10
:100AA000B0EC011A5B1E01EE010A70EE810AF7D16B
:100AB0001DE0002B1BDD001F13F0010F06D090ED91
:100AC000011A001D01EE010A71EE200A5B080ED02A
:100AD00090ED011A01EE010A71EE200A90ED021A62
:100AE00008305B1E71EE200A01EE010AF0D101EE22
:100AF000101AB8EE412AB7EE001A72EE412A80EEC3
:100B0000222A00EE101AF8EE402A80EEA20A00EE29
:100B1000901AF8EE600A30EEC11A00EE901AF8EE64
:100B2000602AC2EE810A20EE000A20EE800A32EE30
:100B3000400AB5EEC00AF1EE10FAC6BFF1EEC00AE7
:100B4000C2ED000AC2ED001A70470000000000006C
:100B50002DE9F0014E0801244FF0000C04EB510781
:100B60006146A6F102082CE061452AD200EBCC05D3
:100B700000EBC104D5ED000A94ED000AC4ED000AB3
:100B800085ED000AD5ED010A94ED010AC4ED010AD4
:100B900085ED010ACC1900EBC4050CEB070400EB52
:100BA000C40495ED000AD4ED000AC5ED000A84EDF9
:100BB000000AD4ED010A95ED010AC5ED010A84EDA4
:100BC000010A00EBC104B44400EBCC0C94ED020A22
:100BD000DCED000A891CC4ED020A8CED000ADCED94
:100BE000010A94ED030AC4ED030A8CED010AB3F87F
:100BF00000C089B203EB42034145B5D9BDE8F0011D
:100C000070472DE9F00701254C0805EB51064FF020
:100C1000000C651E6146002D88BFA8462ED8BDE891
:100C2000F0077047614529D250F8315050F83C70B8
:100C300040F8317040F83C5000EBC10700EBCC09A4
:100C40007D68D9F804A0C7F804A0C9F804508D192C
:100C50000CEB060750F8359050F837A040F835A057
:100C600040F8379000EBC50500EBC707D5F80490B6
:100C7000D7F804A0C5F804A0C7F8049000EBC1059C
:100C8000A444AF6850F83C90C5F8089040F83C7018
:100C900000EBCC0CEF68DCF80490C5F80C90CCF8B5
:100CA0000470B3F800C0891C03EB42034145B9D37B
:100CB000BDE8F00770472DE9F00F01244D084FF013
:100CC000000C04EB5107012D9CBFBDE8F00F7047ED
:100CD000014600EB870400264FEA550815E000BFE7
:100CE000BCEB460F11D950F82CA0D1F80090C1F8F8
:100CF00000A040F82C900CEB0709D4F800A050F8A5
:100D000029B0C4F800B040F829A0AC44D1F8049050
:100D100050F82CA0C1F804A040F82C90B3F800C003
:100D200008310834761C03EB4203B8F10108D7D12F
:100D3000BDE8F00F704770470FB4044910B503AA1F
:100D4000029800F0FFF910BC5DF814FB18000020B9
:100D500070B5044685690068C10601D5302600E0FB
:100D60002026C00707D070BDD4E901213046904746
:100D7000206A401C20626D1EF6D570BD70B5044619
:100D800085690078C00707D170BDD4E90121202012
:100D90009047206A401C20626D1EF6D570BD70B56C
:100DA0000C460546012A05D02878800600D5EA6958
:100DB000002302E0012305E05B1C934202D2E05CC9
:100DC0000028F9D1A869E618C01AA861286A184451
:100DD00028622846FFF7BCFF04E0D5E9012114F89A
:100DE000010B9047B442F8D32846FFF7C7FF70BD08
:100DF0002DE9F0410646002410687529314616A5F4
:100E000010D0AFF30080002802DA404213A507E0BB
:100E100031688A0701D512A502E0490704D511A55A
:100E2000012401E0AFF3008000210A2206F124072B
:100E300009E0B0FBF2FCB0FBF2F302FB1C00303027
:100E400078541846491C0028F3D123462A463046D8
:100E5000BDE8F04100F007B9000000002D000000DF
:100E60002B0000002000000070B504460D4621460E
:100E70001068AFF300802188090502D50F4A7A4433
:100E800002E00E4A7A440E32002104F1240305E008
:100E900000F00F060009965D5E54491C0028F7D14A
:100EA00020780023000704D5702D02D009B1022359
:100EB00011322046BDE8704000F0D5B8067F010031
:100EC0002DE9F05F894604464FF0000ADFF874B15F
:100ED000FB44C0F820A02046E1688847002874D071
:100EE000252806D0D4E901219047206A401C2062C1
:100EF000F1E700265F462046E1688847202805463E
:100F000007DB312D05D2781910F8200C08B1064303
:100F1000F1E7B00701D526F00406C4F81CA00027AD
:100F2000C4F818A02A2D09D028460AF0E9F938B3E8
:100F300004EB8708303DC8F8185019E059F8041B35
:100F4000204604EB87029161E1688847012F05463E
:100F500018D1E069002820DA26F020061DE0D8F834
:100F6000180000EB800005EB40003038C8F818008E
:100F70002046E168884705460AF0C2F90028EED10C
:100F8000012F0AD02E2D08D12046E16888477F1C0A
:100F90000546022F46F02006C4DBA069002803DACC
:100FA000404246F00106A061F00701D026F010068D
:100FB0006C2D0BD0682D09D04C2D39D06A2D35D031
:100FC000742D35D07A2D33D016E038E0E1682F4605
:100FD00020468847B842054609D16C2F26D04FF4E9
:100FE0008060E168064320468847054604E06C2F90
:100FF0001AD04FF4807006430DB3A5F141001928B3
:1010000002D8203546F400664A4629462046266026
:101010004E46FFF713F980B101280BD0F61D26F0DC
:10102000070000F1080956E74020E4E78020D8E7F0
:101030000020D6E706F104094DE7284652E7206A6A
:10104000BDE8F09FDC7E0100704770477047704735
:1010500010B500F089F8006810BD10B5044600F026
:1010600083F8046010BD2DE9F0470D46994692467D
:10107000044600F124080168880604D5E06921F0DF
:101080001001216000E00120A84201DD471B00E0C3
:101090000027A1697A1902EB0900081AA0612078DB
:1010A000C00602D42046FFF753FE002608E0D4E92C
:1010B00001211AF806009047206A401C761C206225
:1010C0004E45F4DB2078C0060AD52046FFF740FEE7
:1010D00006E0D4E9012130209047206A401C2062BC
:1010E000381EA7F10107F4DC07E0D4E9012118F864
:1010F00005009047206A401C2062281EA5F10105CA
:10110000F3DC2046FFF73AFE2078000602D50220E5
:10111000BDE8F0870120FBE710B5436913B1AFF3D9
:10112000008001E0FFF73BFE012010BD127800F1C6
:1011300024010A7000224A700122EDE711684FF085
:10114000FF32E9E7074B70B50D467B4400F015F818
:101150000446284600F024F810B14FF0FF3070BD6F
:10116000204670BDA3A300000048704700AD0120D9
:1011700001694A1C02610878704700B58FB0CDE95B
:1011800001310021059105497944CDE9031011464B
:101190006846FFF795FE0FB000BD0000E5FFFFFFBA
:1011A000007B00F0800070470048704700AD0120D0
:1011B0007546FFF7F9FFAE4605006946534620F035
:1011C0000700854618B020B5FFF770F8BDE820404D
:1011D0004FF000064FF000074FF000084FF0000BF3
:1011E00021F00701AC46ACE8C009ACE8C009ACE8A6
:1011F000C009ACE8C0098D4670470446AFF30080D3
:101200002046FFF73BF800000D4B4FF0000CC3F8F1
:1012100000C0D3F800C04CEA40101860186840EADB
:1012200081101860186840EAC2101860186840F40D
:1012300080401860186840F0010018607047000096
:1012400000000550DFF8B0C030B4DCF8004044F4D2
:101250008004CCF80040DFF8A4C000BFDCF80040F8
:1012600014F0010FFAD1264C256845F47465256009
:10127000244D21242C60254D234C2C602C1D2060F6
:10128000281F01600020CCF80000DCF80000CCF83A
:101290000000DCF8000040F48070CCF80000DCF8BE
:1012A0000000CCF80000DCF8000040EA8320CCF815
:1012B0000000DCF8000040F48050CCF80000DCF8BE
:1012C000000040EA4230CCF80000DCF8000040F4B6
:1012D0000030CCF80000DCF80000CCF80000DCF8AE
:1012E0000000CCF80000DCF8000040F00070CCF802
:1012F000000030BC704700003038024028640240D3
:10130000086402403C6402402800055030640240FA
:1013100010B50D4C206910F0010F08BF10BD0AF088
:10132000BDF9606940F0010060610848D0F8A8127A
:1013300000290CBF01210021C0F8A812044801783F
:10134000491C017010BD00000000055000804242A1
:10135000210000202DE9F041514882B0016841F0A0
:1013600001010160016841F002010160016841F082
:1013700004010160016841F010010160001D016875
:1013800041F00101016001240325464ECDE90054DE
:10139000002302225021304600F050FA424FCDE99E
:1013A000005400230222C021384600F047FADFF83B
:1013B000FC80CDE90054002302224FF43C614046FA
:1013C00000F03CFACDE90054394C002302226021A0
:1013D000204600F033FA0D220421304600F01AFABC
:1013E0000D220621304600F015FA0D22072138465D
:1013F00000F010FA0D220621404600F00BFA0D22F3
:101400000721404600F006FA0D220821404600F070
:1014100001FA0D220921404600F0FCF90D220B21B2
:10142000404600F0F7F90D220621384600F0F2F9A7
:101430000D220521204600F0EDF90D22062120465F
:1014400000F0E8F91B4800210160C1601F224261E1
:101450008161C161016241620168016001680160EE
:1014600001680160016841F02001016001680160CC
:10147000016801600168016001680160C16841F0B4
:101480000101C160016841F48041016002B00223A2
:10149000BDE8F0414E221946002008F029BF0000A7
:1014A00030380240000002400004024000080240C0
:1014B00000100240000005500448016821F00101BD
:1014C0000160016811F0010FFBD170470000055069
:1014D00010B50021084608F06BFA08F0E1FE034859
:1014E000016841F00101016010BD000000000550DD
:1014F0002DE9F047184C81461E462068174688465D
:1015000020F00100C4F80000D4F800C01CF0010F66
:10151000FAD1124D286820F0010028604FF6FF70C4
:1015200000F052FA33463A464146484608F008FC75
:101530003146384609F0EFF80021084608F038FA3D
:1015400008F0AEFE286840F001002860206840F0F6
:1015500001002060BDE8F0870000055028640240CB
:1015600010B50021084608F023FA08F099FE054856
:10157000016841F0010101600348016841F0010187
:10158000016010BD28640240000005500748016852
:1015900021F001010160016811F0010FFBD1044845
:1015A000016821F001010160704700000000055052
:1015B000286402402DE9F043904883B0016841F06F
:1015C000780101608E48016841F0010101608D4E93
:1015D0000C220A21304600F01DF9012403258A4F10
:1015E000CDE90054002302224FF63371384600F053
:1015F00025F9DFF81882CDE90054002302224FF6C6
:101600008371404600F01AF9DFF80492CDE90054E6
:10161000002302224FF23F01484600F00FF9CDE9C6
:1016200000540023022240F23F41304600F006F908
:101630000C220021384600F0EDF80C22012138463A
:1016400000F0E8F80C220421384600F0E3F80C2200
:101650000521384600F0DEF80C220821384600F05B
:10166000D9F80C220921384600F0D4F80C220A21BE
:10167000384600F0CFF80C220B21384600F0CAF8AB
:101680000C221146384600F0C5F80C220D213846D0
:1016900000F0C0F80C220E21384600F0BBF80C22F6
:1016A0000F21384600F0B6F80C220021404600F029
:1016B000B1F80C220121404600F0ACF80C220721C1
:1016C000404600F0A7F80C220821404600F0A2F89E
:1016D0000C220921404600F09DF80C220A214046C8
:1016E00000F098F80C220B21404600F093F80C22F1
:1016F0001146404600F08EF80C220D21404600F0C5
:1017000089F80C220E21404600F084F80C220F21AB
:10171000404600F07FF80C220021484600F07AF89D
:101720000C220121484600F075F80C22022148469F
:1017300000F070F80C220321484600F06BF80C22F0
:101740000421484600F066F80C220521484600F0C6
:1017500061F80C221146484600F05CF80C220D217D
:10176000484600F057F80C220E21484600F052F887
:101770000C220F21484600F04DF80C220021304683
:1017800000F048F80C220121304600F043F80C220A
:101790000221304600F03EF80C220321304600F0D2
:1017A00039F80C220421304600F034F80C220521CF
:1017B000304600F02FF84FF02040002101614161D8
:1017C000C0F81411016941F480510161016941F0CF
:1017D00010010161416941F4006141614169416168
:1017E000416941616FF07041C0F81411016941F025
:1017F0000101016103B0BDE8F08300003038024010
:101800003838024000180240000C0240001002402C
:1018100000140240CB0800EB8300036A4907C90E9D
:101820004FF00F0C0CFA01FC23EA0C030362036A6D
:1018300002FA01F119430162704700002DE9F04FEF
:101840004FF0000CDDE909A901274FF0030800BFA4
:1018500007FA0CF501EA0504AC4236D1D0F800B025
:101860004FEA4C0408FA04F62BEA060BC0F800B065
:10187000D0F800B002FA04FE4BEA0E0BC0F800B03C
:10188000012A18BF022A18D1D0F808B02BEA060B9B
:10189000C0F808B0D0F808B00AFA04FE4BEA0E0B04
:1018A000C0F808B0D0F804B02BEA050545604568DB
:1018B00003FA0CFB45EA0B054560C568B543C560F6
:1018C000C56809FA04F42C43C4600CF1010CBCF1A6
:1018D000100FBDD3BDE8F08F0F4810B5016882B07E
:1018E00041F001010160016841F010010160002434
:1018F0000120CDE90040234622461C210748FFF77E
:101900009DFF0220CDE9004000231A460121044832
:10191000FFF794FF02B010BD3038024000100240C3
:101920000000024070B50121244D254E254C0028B1
:101930000ABF2878297000280FD0D4F81002002898
:101940001CBFD4F80C02002810D0D4F808020028DC
:101950001CBFD6F80002012808D0D4F810020128D4
:1019600004BFD4F80C02012826D11DE00A2009F09A
:10197000E5FC00202870D4F81002002804BF0120E4
:1019800070BDD4F80C02002804BF022070BDD4F84A
:101990000802002804BF032070BDD6F80002012809
:1019A00004BF042070BD07E0D4F80802012802BF7C
:1019B000D6F8000200282970002070BD2000002009
:1019C00000004042000042422DE9F0411E4E054613
:1019D0003088718801FB00F4B088A0F5D04104394B
:1019E00004BFB07901281ED00021084607F0E0FFAF
:1019F0004FF0D8423089A2F87E00002C08BFBDE825
:101A0000F08114F0010118BFA2F88050A14228BF54
:101A1000BDE8F081A2F88050A2F88050891CA14254
:101A2000F8D3BDE8F0810020B0712A2777814FF00C
:101A30002B08A6F80C80014607F0BAFF0120B07110
:101A4000A6F80A80B781D3E77C0300202DE9F04F88
:101A500050494FF02A0C2B24898845F210574FF437
:101A600030584FF428594FF448754FF0F00A49F2B6
:101A7000413B4FF4A07345F210364FF4F07288B139
:101A800044484FF0010E594580F806E00380A0F865
:101A900002A018BFB14246D12C250581A0F80AC08A
:101AA000848166E03B484FF0000E594580F806E01F
:101AB000A0F800A043801EBFA1F5D04ABAF1040AE5
:101AC000B1420DD12C250581A0F80AC0A1F5D04C5A
:101AD0008481BCF1040C12BFB142038042801DE03E
:101AE000B94209D1A0F80880A0F80A904FF42C510F
:101AF00081810280458011E0A1F5C853633B06D087
:101B000022210181202141812121818106E02C2196
:101B100001814481A0F80CC002804580BDE8F04FEF
:101B2000062007F07DBDA1F5D04ABAF1040A0CD019
:101B3000B9420ED1A0F80880A0F80A904FF42C5CAE
:101B4000A0F80CC00580428013E02C25058144815B
:101B50000DE0A1F5C857633F14D04FF0220CA0F858
:101B600008C04FF0210CA0F80AC04FF0200CA0F8DC
:101B70000CC0A1F5D04CBCF1040C12BFB1420280E4
:101B80004380CBE72C270781A0F80AC08481058019
:101B90004280EEE77C03002070B5144606462044E0
:101BA00082B2301B0D4680B20B4600F00BF82819AC
:101BB00083B2281B3246BDE8704081B2104600F067
:101BC00001B800002DE9F04F4FF0000A161A5D1A17
:101BD00083B0D14680460F46002EC8BF012006DCE8
:101BE0000FBF00204FF0FF307642019000D10190EE
:101BF000002DC8BF012006DC0FBF00204FF0FF30D2
:101C00006D42009000D10090AE42CCBF34462C46CD
:101C10004FF0000B601C52BF029003B0BDE8F08F84
:101C2000B9B20F4A1FFA88F0128800F039F8B244AE
:101C3000A944A24503DD0198AAEB040A8044A1450A
:101C400003DD0098A9EB040907440BF101001FFA1A
:101C500080FB02988345E3DD03B0BDE8F08F000010
:101C60001C0000202DE9F0411C4615460E46074693
:101C70000B46FFF7A7FF3A46234631461046FFF7CB
:101C8000A1FF23462A4619463846FFF79BFF2A46FE
:101C900023463146BDE8F0411046FFF793BF0000F0
:101CA0002DE9F80FDFF818930D0ACC46B9F8047047
:101CB000BCF80C40BCF80AC0A7F5134B4FF0D84352
:101CC000CEB200F0FF0A4FEA1028BBF1410B1CBF57
:101CD000A7F5A04BBBF5447B2FD0A7F5A04BBBF5D8
:101CE000A26B67D0DFF8D8A2A7F5C85BBBF1630B86
:101CF0009AF80680BAF800A0AAEB000AAAF1010A35
:101D00007DD0A7F5D04BBBF1040B00F01581B8F1E5
:101D1000010F08BF1FFA8AF0A3F87EC0A3F8800065
:101D2000A3F87E40A3F88010B9F80800A3F87E005D
:101D3000A3F88020BDE8F80F7047ADF800C0BDF8EB
:101D40000000ADF80000BDF80000A3F87E00ADF87B
:101D50000080BDF80000ADF80000BDF80000A3F859
:101D60008000ADF800A0BDF80000ADF80000BDF89F
:101D70000000A3F88000ADF80040BDF80000ADF809
:101D80000000BDF80000A3F87E00ADF80050BDF8DB
:101D90000000ADF80000BDF80000A3F88000ADF829
:101DA0000060BDF80000ADF80000BDF80000A3F829
:101DB0008000B9E7ADF800C0BDF80000ADF8000044
:101DC000BDF80000A3F87E00ADF80080BDF800006B
:101DD000ADF80000BDF80000A3F880000CF1010090
:101DE000ADF80000BDF80000ADF80000BDF800003F
:101DF000A3F87E00ADF800A0BDF8000000E02FE0E1
:101E0000ADF80000BDF80000A3F88000ADF8004078
:101E1000BDF80000ADF80000BDF80000A3F87E009A
:101E2000ADF80050BDF80000ADF80000BDF80000AE
:101E3000A3F88000601CADF80000BDF80000ADF80C
:101E40000000BDF80000A3F87E00ADF80060BDF80A
:101E50000000ADF80000BDF80000A3F8800063E7C3
:101E6000B8F1000F08BF1FFA8AF0ADF800C0BDF846
:101E70000010ADF80010BDF80010A3F87E10010AA4
:101E8000ADF80010BDF800C0ADF800C0BDF800C04E
:101E9000A3F880C0C0B2ADF80000BDF800C0ADF836
:101EA00000C0BDF800C0A3F880C0ADF80010BDF8B8
:101EB0000010ADF80010BDF80010A3F88010ADF8C8
:101EC0000000BDF80000ADF80000BDF80000A3F868
:101ED0008000ADF80040BDF80000ADF80000BDF88E
:101EE0000000A3F87E00ADF80050BDF80000ADF88A
:101EF0000000BDF80000A3F88000ADF80060BDF858
:101F00000000ADF80000BDF80000A3F88000ADF8B7
:101F10000050BDF80000ADF80000BDF80000A3F8C7
:101F20008000ADF80060BDF80000ADF80000BDF81D
:101F30000000A3F88000F7E6B8F1010F08BF1FFA10
:101F40008AF0ADF800C0BDF80010ADF80010BDF883
:101F50000010A3F87E10010AADF80010BDF80010C3
:101F6000ADF80010BDF80010A3F88010C0B2ADF8B5
:101F70000000BDF80000ADF80000BDF80000A3F8B7
:101F80008000ADF80040BDF80000ADF80000BDF8DD
:101F90000000A3F87E00ADF80050BDF80000ADF8D9
:101FA0000000BDF80000A3F88000ADF80060BDF8A7
:101FB0000000ADF80000BDF80000A3F88000B3E613
:101FC0007C0300202DE9F847DFF8B080824699466F
:101FD000B8F80400099EA0F5D043043B04BF98F86C
:101FE0000600012828D0A2EB0A00401C87B20C464C
:101FF000494594BF4FF0D845BDE8F8872146504683
:1020000007F0D6FCB8F80800A5F87E0077B117F005
:10201000010018BFA5F88060B84207D2A5F880601B
:10202000A5F88060801C80B2B842F7D3601C84B2EF
:102030004C45E3D9BDE8F887B8F800300846991A4E
:102040004FF0000C88F806C02A24A3EB0A03A8F876
:102050000A402B25491E5B1EA8F80C5089B24A463F
:102060009BB20096FFF7AEFF012088F80600A8F8A3
:102070000A50A8F80C40BDE8F88700007C03002057
:102080002DE9F04FFE4883B00068FD4940F078002C
:102090000860086840F002000860FA480068F949E2
:1020A00040F00100086001264FF0020ACDE900A6C9
:1020B00000233246F103F448FFF7C0FB0327F34C3B
:1020C000CDE90076002302224CF233712046FFF75F
:1020D000B5FB0320CDE90006ED4D002302224FF6AB
:1020E00080712846FFF7AAFB0320CDE900060222F3
:1020F0000023D102E748FFF7A1FB0320CDE900064A
:1021000002220023D102E448FFF798FB0C220021B1
:102110002046FFF77FFB0C2201212046FFF77AFBC8
:102120000C2204212046FFF775FB0C2205212046D6
:10213000FFF770FB0C2208212046FFF76BFB0C22F7
:1021400009212046FFF766FB0C220A212046FFF7F3
:1021500061FB0C220E212046FFF75CFB0C220F21B5
:102160002046FFF757FB0C2207212846FFF752FBBA
:102170000C2208212846FFF74DFB0C220921284696
:10218000FFF748FB0C220A212846FFF743FB0C22ED
:102190000B212846FFF73EFB0C2211462846FFF78D
:1021A00039FB0C220D212846FFF734FB0C220E21AF
:1021B0002846FFF72FFB0C220F212846FFF72AFBAA
:1021C0000C221146B348FFF725FB0C221146B248FA
:1021D000FFF720FB4FF0204000258561C561C0F866
:1021E0001C51816941F480518161816941F48041D0
:1021F0008161816941F010018161C169C161C16979
:1022000041F00F01C161C16941F47051C161D0F861
:102210001C11C0F81C11D0F81C1141F00901C0F8C4
:102220001C11D0F81C1141F40061C0F81C11816927
:1022300041F001018161322009F080F84FF0D8446B
:10224000A4F87E50A4F88060322009F077F8ADF849
:102250000050BDF80000ADF80000BDF80000A4F883
:102260007E00052009F0A8F8B4F880008B4949F2F7
:10227000413845F2105B8880FF2806D3A0F57F41E6
:10228000FF3918BFB0F5134F7ED1D320ADF8000051
:10229000BDF80000ADF80000BDF80000A4F87E0015
:1022A000B4F880007D48B4F88010B4F880204FF670
:1022B000FF71B4F8803001EA02221A43828042455D
:1022C00062D0BF22ADF80020BDF80020ADF800209C
:1022D000BDF80020A4F87E20B4F88020B4F8802057
:1022E000B4F88020B4F88020B4F8803001EA0222EB
:1022F0001A43A2F5D0438280043B6FD0D422ADF8BC
:102300000020BDF80020ADF80020BDF80020A4F8A2
:102310007E20B4F88020B4F88020B4F88020B4F88F
:10232000803001EA02221A43A2F5A6438280103BC4
:1023300054D04FF45A42ADF80020BDF80020ADF85B
:102340000020BDF80020A4F87E20B4F880204FF4CF
:102350005B42ADF80020BDF80020ADF80020BDF8CC
:102360000020A4F87E20B4F880204FF45C4301EAFA
:102370000222ADF80030BDF80030ADF80030BDF8F5
:102380000030A4F87E3000E028E0B4F880301A4332
:102390008280B2F5004F08BFA0F804B038D05A458B
:1023A0001CD0A122ADF80020BDF80020ADF800201F
:1023B000BDF80020A4F87E20B4F88020B4F8802076
:1023C00001EA0221B4F880201143A1F5AE428180D8
:1023D000613A04BF41F66311818019D02F4880888B
:1023E00040451CBFA0F5A041B1F5447110D058453F
:1023F0001CBFA0F5C851B1F1630109D0A0F5D041CF
:1024000004391CBFA0F54541B1F1050119D032E0F6
:102410004FF02040D0F81C1121F00F01C0F81C1122
:10242000D0F81C1121F47061C0F81C11D0F81C11F7
:1024300041F00301C0F81C11D0F81C1141F40071E7
:1024400017E04FF02040D0F81C1121F00F01C0F828
:102450001C11D0F81C1121F47061C0F81C11D0F8C7
:102460001C1141F00A01C0F81C11D0F81C1141F4F4
:102470004061C0F81C110948818809A018E00000DB
:10248000303802403838024000040240000C02405C
:102490000010024000140240001802407C0300209B
:1024A000204C43442049443A25780D0A000000009E
:1024B000FEF742FCFE4841464FF0B10C82881120E5
:1024C0004FF005094FF02A088A4240F0CD83CF2112
:1024D000ADF80010BDF80010ADF80010BDF8001008
:1024E000A4F87E10ADF80050BDF80010ADF8001053
:1024F000BDF80010A4F88010C122ADF80020BDF88E
:102500000010ADF80010BDF80010A4F880103021C4
:10251000ADF80010BDF80030ADF80030BDF8003067
:10252000A4F88030ED23ADF80030BDF80030ADF8F0
:102530000030BDF80030A4F87E306423ADF80030E0
:10254000BDF80030ADF80030BDF80030A4F88030A0
:10255000ADF80070BDF80030ADF80030BDF80030C7
:10256000A4F880301223ADF80030BDF80030ADF88B
:102570000030BDF80030A4F880308123ADF8003081
:10258000BDF80030ADF80030BDF80030A4F8803060
:10259000E823ADF80030BDF80030ADF80030BDF8EC
:1025A0000030A4F87E308523ADF80030BDF800304F
:1025B000ADF80030BDF80030A4F880301027ADF839
:1025C0000070BDF80030ADF80030BDF80030A4F860
:1025D00080307A23ADF80030BDF80030ADF800301F
:1025E000BDF80030A4F88030CB23ADF80030BDF842
:1025F0000030ADF80030BDF80030A4F87E3039234B
:10260000ADF80030BDF80030ADF80030BDF8003056
:10261000A4F880302C23ADF80030BDF80030ADF8C0
:102620000030BDF80030A4F88030ADF80050BDF89F
:102630000030ADF80030BDF80030A4F8803034230D
:10264000ADF80030BDF80030ADF80030BDF8003016
:10265000A4F88030ADF800A0BDF80030ADF800302F
:10266000BDF80030A4F88030F723ADF80030BDF895
:102670000030ADF80030BDF80030A4F87E302023E3
:10268000ADF80030BDF80030ADF80030BDF80030D6
:10269000A4F88030EA23ADF80030BDF80030ADF882
:1026A0000030BDF80030A4F87E30ADF80050BDF821
:1026B0000030ADF80030BDF80030A4F88030ADF83F
:1026C0000050BDF80030ADF80030BDF80030A4F87F
:1026D0008030C023ADF80030BDF80030ADF80030D8
:1026E000BDF80030A4F87E301B23ADF80030BDF8F3
:1026F0000030ADF80030BDF80030A4F88030ADF8FF
:102700000020BDF80020ADF80020BDF80020A4F89E
:102710007E20ADF80060BDF80020ADF80020BDF8C7
:102720000020A4F88020C522ADF80020BDF80020CC
:10273000ADF80020BDF80020A4F87E20ADF8001010
:10274000BDF80020ADF80020BDF80020A4F88020DE
:10275000ADF80010BDF80010ADF80010BDF8001085
:10276000A4F88010C721ADF80010BDF80010ADF836
:102770000010BDF80010A4F87E10B721ADF80010CD
:10278000BDF80010ADF80010BDF80010A4F88010DE
:102790003621ADF80010BDF80010ADF80010BDF8FE
:1027A0000010A4F87E104821ADF80010BDF800100C
:1027B000ADF80010BDF80010A4F880103A21ADF873
:1027C0000010BDF80010ADF80010BDF80010A4F81E
:1027D0007E105521ADF80010BDF80010ADF80010C6
:1027E000BDF80010A4F88010ADF800C0BDF80010CE
:1027F000ADF80010BDF80010A4F87E10ADF8005040
:10280000BDF80010ADF80010BDF80010A4F880105D
:102810001A21ADF80010BDF80010ADF80010BDF899
:102820000010A4F88010B621ADF80010BDF800101B
:10283000ADF80010BDF80010A4F87E100A22ADF823
:102840000020BDF80010ADF80010BDF80010A4F88D
:102850008010A221ADF80010BDF80010ADF80010F6
:10286000BDF80010A4F88010F221ADF80010BDF8FA
:102870000010ADF80010BDF80010A4F87E10ADF8FF
:102880000050BDF80010ADF80010BDF80010A4F81D
:1028900080102621ADF80010BDF80010ADF8001032
:1028A000BDF80010A4F87E10ADF8006002E0000052
:1028B0007C030020BDF80010ADF80010BDF800103A
:1028C000A4F88010E021ADF80010BDF80010ADF8BC
:1028D0000010BDF80010A4F87E100F21ADF8001014
:1028E000BDF80030ADF80030BDF80030A4F88030FD
:1028F000ADF80080BDF80030ADF80030BDF8003014
:10290000A4F880302823ADF80030BDF80030ADF8D1
:102910000030BDF80030A4F880300823ADF8003056
:10292000BDF800C0ADF800C0BDF800C0A4F880C07C
:102930004FF00E0CADF800C0BDF800C0ADF800C0FF
:10294000BDF800C0A4F880C0ADF80030BDF800307C
:10295000ADF80030BDF80030A4F880305423ADF855
:102960000030BDF80030ADF80030BDF80030A4F8FC
:102970008030A923ADF80030BDF80030ADF800304C
:10298000BDF80030A4F880304323ADF80030BDF826
:102990000030ADF80030BDF80030A4F88030ADF85C
:1029A0000020BDF80020ADF80020BDF80020A4F8FC
:1029B0008020ADF80010BDF80020ADF80020BDF873
:1029C0000020A4F88020ADF80050BDF80020ADF83C
:1029D0000020BDF80020A4F88020ADF80050BDF81C
:1029E0000020ADF80020BDF80020A4F88020ADF84C
:1029F0000050BDF80020ADF80020BDF80020A4F87C
:102A00008020ADF80050BDF80020ADF80020BDF8E2
:102A10000020A4F88020E122ADF80020BDF80020BD
:102A2000ADF80020BDF80020A4F87E20ADF80050DD
:102A3000BDF80020ADF80020BDF80020A4F88020EB
:102A40001522ADF80020BDF80020ADF80020BDF83B
:102A50000020A4F880201722ADF80020BDF8002047
:102A6000ADF80020BDF80020A4F880200722ADF8C2
:102A70000020BDF80020ADF80020BDF80020A4F82B
:102A80008020ADF80000BDF80020ADF80020BDF8B2
:102A90000020A4F880200622ADF80020BDF8002018
:102AA000ADF80020BDF80020A4F880202B23ADF85D
:102AB0000030BDF80020ADF80020BDF80020A4F8DB
:102AC00080205622ADF80020BDF80020ADF800208F
:102AD000BDF80020A4F880203C22ADF80020BDF80D
:102AE0000020ADF80020BDF80020A4F88020ADF84B
:102AF0000090BDF80020ADF80020BDF80020A4F83B
:102B00008020ADF80070BDF80020ADF80020BDF8C1
:102B10000020A4F88020ADF80010BDF80020ADF82A
:102B20000020BDF80020A4F880203F22ADF800204E
:102B3000BDF800C0ADF800C0BDF800C0A4F880C06A
:102B4000ADF80020BDF800C0ADF800C0BDF800C071
:102B5000A4F880C0ADF80010BDF80010ADF800106A
:102B6000BDF80010A4F88010ADF80030BDF80010DA
:102B7000ADF80010BDF80010A4F87E10ADF80050BC
:102B8000BDF80010ADF80010BDF80010A4F88010DA
:102B9000ADF80050BDF80010ADF80010BDF8001001
:102BA000A4F88010ADF80060BDF80010ADF800107A
:102BB000BDF80010A4F88010ADF80020BDF800109A
:102BC000ADF80010BDF80010A4F88010ADF800803A
:102BD000BDF80010ADF80010BDF80010A4F87E108C
:102BE000ADF80050BDF80010ADF80010BDF80010B1
:102BF000A4F88010ADF80050BDF80010ADF800103A
:102C0000BDF80010A4F88010ADF80050BDF8001019
:102C1000ADF80010BDF80010A4F88010EF21ADF859
:102C20000010BDF80010ADF80010BDF80010A4F8B9
:102C30008010ADF80000BDF80000ADF80000BDF850
:102C40000000A4F87E00782008F078FB2920ADF879
:102C50000000BDF80000ADF80000BDF80000A4F8C9
:102C60007E0006F0D3BB00BFA2F5D041043901F0CD
:102C70002681E221A2F5A6434FF0040E103B01F09D
:102C800063835A4544F07E854FF470415520A4F883
:102C90007E10A4F88000491CAA20A4F87E10A4F895
:102CA0008000481C5221A4F87E00A4F88010401C2B
:102CB0000821A4F87E00A4F88010411C0120A4F88B
:102CC0007E10A4F880004FF430410D20A4F87E104F
:102CD000A4F88000481C0D21A4F87E00A4F8801000
:102CE000411C0D20A4F87E10A4F880004FF436415A
:102CF0003420A4F87E10A4F88000481C3421A4F8E5
:102D00007E00A4F88010401CA4F87E00A4F8801077
:102D10004FF431410D20A4F87E10A4F88000481C27
:102D20000D21A4F87E00A4F88010411C0D20A4F809
:102D30007E10A4F880004FF437403421A4F87E00C0
:102D4000A4F88010401CA4F87E00A4F88010411C58
:102D50003420A4F87E10A4F880004FF43241002003
:102D6000A4F87E10A4F88000491CA4F87E10A4F8F2
:102D70008000481C0021A4F87E00A4F880104FF4C5
:102D800038412420A4F87E10A4F88000491CA4F83F
:102D90007E10A4F88000491CA4F87E10A4F88000DE
:102DA0004FF43F410120A4F87E10A4F880004FF4B6
:102DB00033400F21A4F87E00A4F88010411C0F209E
:102DC000A4F87E10A4F88000491CA4F87E10A4F892
:102DD00080004FF439403421A4F87E00A4F880101C
:102DE000401CA4F87E00A4F88010401CA4F87E00CB
:102DF000A4F880104FF435410820A4F87E10A4F800
:102E00008000491CA4F87E10A4F88000491CA4F896
:102E10007E10A4F880004FF442410320A4F87E10F5
:102E2000A4F880004FF43A412420A4F87E10A4F8BE
:102E30008000481C2421A4F87E00A4F88010411CC6
:102E40002420A4F87E10A4F880004FF43C41002018
:102E5000A4F87E10A4F88000481C7821A4F87E0015
:102E6000A4F88010411C0020A4F87E10A4F8800073
:102E70004FF43D41A4F87E10A4F88000491C78204E
:102E8000A4F87E10A4F88000481C0021A4F87E005D
:102E9000A4F880104FF43E410020A4F87E10A4F85E
:102EA0008000491C6420A4F87E10A4F880004FF430
:102EB00051400021A4F87E00A4F88010401C33216A
:102EC000A4F87E00A4F88010411C0020A4F87E1015
:102ED000A4F88000481C3421A4F87E00A4F88010D7
:102EE000411C0020A4F87E10A4F88000481C3A2160
:102EF000A4F87E00A4F88010411C0020A4F87E10E5
:102F0000A4F88000491C4A20A4F87E10A4F8800090
:102F1000491C0020A4F87E10A4F88000491C5C2005
:102F2000A4F87E10A4F88000491C0020A4F87E10AC
:102F3000A4F88000491C8120A4F87E10A4F8800029
:102F4000481C0021A4F87E00A4F88010411CA62093
:102F5000A4F87E10A4F88000481C0021A4F87E008C
:102F6000A4F88010401CE521A4F87E00A4F880108D
:102F7000411C0120A4F87E10A4F88000481C1321F5
:102F8000A4F87E00A4F88010411C0120A4F87E1053
:102F9000A4F88000481C5421A4F87E00A4F88010F6
:102FA000401C0121A4F87E00A4F88010411C82205E
:102FB000A4F87E10A4F88000481C0121A4F87E002B
:102FC000A4F88010401CCA21A4F87E00A4F8801048
:102FD000401C0221A4F87E00A4F88010411C0020AF
:102FE000A4F87E10A4F88000491C0220A4F87E10EA
:102FF000A4F88000481C0121A4F87E00A4F88010E9
:10300000411C0220A4F87E10A4F88000491C342042
:10301000A4F87E10A4F88000481C0221A4F87E00C9
:10302000A4F88010401C6721A4F87E00A4F880104A
:10303000411C0220A4F87E10A4F88000491C8420C2
:10304000A4F87E10A4F88000481C0221A4F87E0099
:10305000A4F88010411CA420A4F87E10A4F88000DD
:10306000491C0220A4F87E10A4F88000481CB72157
:10307000A4F87E00A4F88010401C0221A4F87E0071
:10308000A4F88010411CCF20A4F87E10A4F8800082
:10309000491C0220A4F87E10A4F88000481CDE2100
:1030A000A4F87E00A4F88010411C0220A4F87E1031
:1030B000A4F88000491CF220A4F87E10A4F8800037
:1030C000481C0221A4F87E00A4F88010411CFE20B8
:1030D000A4F87E10A4F88000481C0321A4F87E0008
:1030E000A4F88010411C1020A4F87E10A4F88000E1
:1030F000491C0320A4F87E10A4F88000491C33204A
:10310000A4F87E10A4F88000481C0321A4F87E00D7
:10311000A4F88010411C6D20A4F87E10A4F8800053
:103120004FF452400021A4F87E00A4F88010411C06
:103130003320A4F87E10A4F88000481C0021A4F8D5
:103140007E00A4F88010411C3420A4F87E10A4F85E
:103150008000491C0020A4F87E10A4F88000491CBF
:103160003A20A4F87E10A4F88000491C0020A4F89E
:103170007E10A4F88000481C4A21A4F87E00A4F820
:103180008010401C0021A4F87E00A4F88010411C8F
:103190005C20A4F87E10A4F88000491C0020A4F84C
:1031A0007E10A4F88000491C8120A4F87E10A4F8A9
:1031B0008000481C0021A4F87E00A4F88010411C67
:1031C000A620A4F87E10A4F88000491C0020A4F8D2
:1031D0007E10A4F88000491CE520A4F87E10A4F815
:1031E0008000481C0121A4F87E00A4F88010411C36
:1031F0001320A4F87E10A4F88000481C0121A4F834
:103200007E00A4F88010411C5420A4F87E10A4F87D
:103210008000481C0121A4F87E00A4F88010401C06
:103220008221A4F87E00A4F88010411C0120A4F89B
:103230007E10A4F88000491CCA20A4F87E10A4F8CF
:103240008000481C0221A4F87E00A4F88010411CD4
:103250000020A4F87E10A4F88000491C0220A4F8E5
:103260007E10A4F88000491C0120A4F87E10A4F868
:103270008000491C0220A4F87E10A4F88000491C9C
:103280003420A4F87E10A4F88000491C0220A4F881
:103290007E10A4F88000491C6720A4F87E10A4F8D2
:1032A0008000481C0221A4F87E00A4F88010401C75
:1032B0008421A4F87E00A4F88010411C0220A4F808
:1032C0007E10A4F88000491CA420A4F87E10A4F865
:1032D0008000491C0220A4F87E10A4F88000491C3C
:1032E000B720A4F87E10A4F88000481C0221A4F89E
:1032F0007E00A4F88010411CCF20A4F87E10A4F812
:103300008000481C0221A4F87E00A4F88010401C14
:10331000DE21A4F87E00A4F88010411C0220A4F84D
:103320007E10A4F88000491CF220A4F87E10A4F8B6
:103330008000491C0220A4F87E10A4F88000491CDB
:10334000FE20A4F87E10A4F88000481C0321A4F8F5
:103350007E00A4F88010411C1020A4F87E10A4F870
:103360008000491C0320A4F87E10A4F88000491CAA
:103370003320A4F87E10A4F88000491C0320A4F890
:103380007E10A4F88000491C6D20A4F87E10A4F8DB
:1033900080004FF453410020A4F87E10A4F8800070
:1033A000491C3320A4F87E10A4F88000491C00209A
:1033B000A4F87E10A4F88000491C3420A4F87E10E4
:1033C000A4F88000481C0021A4F87E00A4F8801016
:1033D000411C3A20A4F87E10A4F88000491C00206B
:1033E000A4F87E10A4F88000481C4A21A4F87E00AE
:1033F000A4F88010411C0020A4F87E10A4F88000DE
:10340000491C5C20A4F87E10A4F88000491C002010
:10341000A4F87E10A4F88000491C8120A4F87E1036
:10342000A4F88000491C0020A4F87E10A4F88000B5
:10343000491CA620A4F87E10A4F88000491C002096
:10344000A4F87E10A4F88000491CE520A4F87E10A2
:10345000A4F88000491C0120A4F87E10A4F8800084
:10346000491C1320A4F87E10A4F88000481C0121F8
:10347000A4F87E00A4F88010411C5420A4F87E100B
:10348000A4F88000491C0120A4F87E10A4F8800054
:10349000491C8220A4F87E10A4F88000491C012059
:1034A000A4F87E10A4F88000491CCA20A4F87E105D
:1034B000A4F88000491C0220A4F87E10A4F8800023
:1034C000491C0020A4F87E10A4F88000491C0220AA
:1034D000A4F87E10A4F88000491C0120A4F87E10F6
:1034E000A4F88000491C0220A4F87E10A4F88000F3
:1034F000491C3420A4F87E10A4F88000491C022046
:10350000A4F87E10A4F88000491C6720A4F87E105F
:10351000A4F88000491C0220A4F87E10A4F88000C2
:10352000491C8420A4F87E10A4F88000481C0221C5
:10353000A4F87E00A4F88010401CA421A4F87E000A
:10354000A4F88010411C0220A4F87E10A4F880008A
:10355000491CB720A4F87E10A4F88000481C022162
:10356000A4F87E00A4F88010401CCF21A4F87E00AF
:10357000A4F88010411C0220A4F87E10A4F880005A
:10358000491CDE20A4F87E10A4F88000491C02200B
:10359000A4F87E10A4F88000491CF220A4F87E1044
:1035A000A4F88000491C0220A4F87E10A4F8800032
:1035B000491CFE20A4F87E10A4F88000491C0320BA
:1035C000A4F87E10A4F88000491C1020A4F87E10F6
:1035D000A4F88000491C0320A4F87E10A4F8800001
:1035E000491C3320A4F87E10A4F88000491C032055
:1035F000A4F87E10A4F88000491C6D20A4F87E1069
:10360000A4F880004FF454410020A4F87E10A4F8E0
:103610008000481C3321A4F87E00A4F88010411CCF
:103620000020A4F87E10A4F88000491C3420A4F8DF
:103630007E10A4F88000491C0020A4F87E10A4F895
:103640008000491C3A20A4F87E10A4F88000491C90
:103650000020A4F87E10A4F88000491C4A20A4F899
:103660007E10A4F88000491C0020A4F87E10A4F865
:103670008000481C5C21A4F87E00A4F88010411C46
:103680000020A4F87E10A4F88000491C8120A4F832
:103690007E10A4F88000491C0020A4F87E10A4F835
:1036A0008000481CA621A4F87E00A4F88010411CCC
:1036B0000020A4F87E10A4F88000491CE520A4F89E
:1036C0007E10A4F88000491C0120A4F87E10A4F804
:1036D0008000491C1320A4F87E10A4F88000491C27
:1036E0000120A4F87E10A4F88000491C5420A4F8FE
:1036F0007E10A4F88000491C0120A4F87E10A4F8D4
:103700008000491C8220A4F87E10A4F88000491C87
:103710000120A4F87E10A4F88000491CCA20A4F857
:103720007E10A4F88000491C0220A4F87E10A4F8A2
:103730008000491C0020A4F87E10A4F88000491CD9
:103740000220A4F87E10A4F88000491C0120A4F8EF
:103750007E10A4F88000491C0220A4F87E10A4F872
:103760008000491C3420A4F87E10A4F88000491C75
:103770000220A4F87E10A4F88000491C6720A4F859
:103780007E10A4F88000491C0220A4F87E10A4F842
:103790008000491C8420A4F87E10A4F88000491CF5
:1037A0000220A4F87E10A4F88000491CA420A4F8EC
:1037B0007E10A4F88000491C0220A4F87E10A4F812
:1037C0008000491CB720A4F87E10A4F88000491C92
:1037D0000220A4F87E10A4F88000491CCF20A4F891
:1037E0007E10A4F88000491C0220A4F87E10A4F8E2
:1037F0008000491CDE20A4F87E10A4F88000491C3B
:103800000220A4F87E10A4F88000491CF220A4F83D
:103810007E10A4F88000491C0220A4F87E10A4F8B1
:103820008000491CFE20A4F87E10A4F88000491CEA
:103830000320A4F87E10A4F88000491C1020A4F8EE
:103840007E10A4F88000491C0320A4F87E10A4F880
:103850008000491C3320A4F87E10A4F88000491C85
:103860000320A4F87E10A4F88000491C6D20A4F861
:103870007E10A4F880004FF455410020A4F87E107B
:10388000A4F88000491C3320A4F87E10A4F880001E
:10389000491C0020A4F87E10A4F88000491C3420A4
:1038A000A4F87E10A4F88000491C0020A4F87E1023
:1038B000A4F88000491C3A20A4F87E10A4F88000E7
:1038C000491C0020A4F87E10A4F88000491C4A205E
:1038D000A4F87E10A4F88000491C0020A4F87E10F3
:1038E000A4F88000491C5C20A4F87E10A4F8800095
:1038F000491C0020A4F87E10A4F88000491C8120F7
:10390000A4F87E10A4F88000491C0020A4F87E10C2
:10391000A4F88000491CA620A4F87E10A4F880001A
:10392000491C0020A4F87E10A4F88000491CE52062
:10393000A4F87E10A4F88000491C0120A4F87E1091
:10394000A4F88000491C1320A4F87E10A4F880007D
:10395000491C0120A4F87E10A4F88000491C5420C2
:10396000A4F87E10A4F88000491C0120A4F87E1061
:10397000A4F88000491C8220A4F87E10A4F88000DE
:10398000491C0120A4F87E10A4F88000491CCA201C
:10399000A4F87E10A4F88000491C0220A4F87E1030
:1039A000A4F88000491C0020A4F87E10A4F8800030
:1039B000491C0220A4F87E10A4F88000491C0120B4
:1039C000A4F87E10A4F88000491C0220A4F87E1000
:1039D000A4F88000491C3420A4F87E10A4F88000CC
:1039E000491C0220A4F87E10A4F88000491C67201E
:1039F000A4F87E10A4F88000491C0220A4F87E10D0
:103A0000A4F88000491C8420A4F87E10A4F880004B
:103A1000491C0220A4F87E10A4F88000491CA420B0
:103A2000A4F87E10A4F88000491C0220A4F87E109F
:103A3000A4F88000491CB720A4F87E10A4F88000E8
:103A4000491C0220A4F87E10A4F88000491CCF2055
:103A5000A4F87E10A4F88000491C0220A4F87E106F
:103A6000A4F88000491CDE20A4F87E10A4F8800091
:103A7000491C0220A4F87E10A4F88000491CF22002
:103A8000A4F87E10A4F88000491C0220A4F87E103F
:103A9000A4F88000491CFE20A4F87E10A4F8800041
:103AA000491C0320A4F87E10A4F88000491C1020B3
:103AB000A4F87E10A4F88000491C0320A4F87E100E
:103AC000A4F88000491C3320A4F87E10A4F88000DC
:103AD000491C0320A4F87E10A4F88000491C6D2026
:103AE000A4F87E10A4F880004FF456410020A4F8FA
:103AF0007E10A4F88000491C3320A4F87E10A4F89E
:103B00008000491C0020A4F87E10A4F88000491C05
:103B10003420A4F87E10A4F88000491C0020A4F8EA
:103B20007E10A4F88000491C3A20A4F87E10A4F866
:103B30008000491C0020A4F87E10A4F88000491CD5
:103B40004A20A4F87E10A4F88000491C0020A4F8A4
:103B50007E10A4F88000491C5C20A4F87E10A4F814
:103B60008000491C0020A4F87E10A4F88000491CA5
:103B70008120A4F87E10A4F88000491C0020A4F83D
:103B80007E10A4F88000491CA620A4F87E10A4F89A
:103B90008000491C0020A4F87E10A4F88000491C75
:103BA000E520A4F87E10A4F88000491C0120A4F8A8
:103BB0007E10A4F88000491C1320A4F87E10A4F8FD
:103BC0008000491C0120A4F87E10A4F88000491C44
:103BD0005420A4F87E10A4F88000491C0120A4F809
:103BE0007E10A4F88000491C8220A4F87E10A4F85E
:103BF0008000491C0120A4F87E10A4F88000491C14
:103C0000CA20A4F87E10A4F88000491C0220A4F861
:103C10007E10A4F88000491C0020A4F87E10A4F8AF
:103C20008000491C0220A4F87E10A4F88000491CE2
:103C30000120A4F87E10A4F88000491C0220A4F8FA
:103C40007E10A4F88000481C3421A4F87E00A4F85B
:103C50008010411C0220A4F87E10A4F88000491CAA
:103C60006720A4F87E10A4F88000491C0220A4F864
:103C70007E10A4F88000491C8420A4F87E10A4F8CB
:103C80008000481C0221A4F87E00A4F88010401C8B
:103C9000A421A4F87E00A4F88010411C0220A4F8FE
:103CA0007E10A4F88000491CB720A4F87E10A4F868
:103CB0008000491C0220A4F87E10A4F88000481C53
:103CC000CF21A4F87E00A4F88010411C0220A4F8A3
:103CD0007E10A4F88000491CDE20A4F87E10A4F811
:103CE0008000481C0221A4F87E00A4F88010411C2A
:103CF000F220A4F87E10A4F88000491C0220A4F849
:103D00007E10A4F88000481CFE21A4F87E00A4F8D0
:103D10008010411C0320A4F87E10A4F88000491CE8
:103D20001020A4F87E10A4F88000481C0321A4F8F9
:103D30007E00A4F88010411C3320A4F87E10A4F863
:103D40008000491C0320A4F87E10A4F88000491CC0
:103D50006D20A4F87E10A4F880004FF47041552027
:103D6000A4F87E10A4F88000491CAA20A4F87E10B4
:103D7000A4F88000491C5220A4F87E10A4F880000A
:103D8000491C0820A4F87E10A4F88000481C0021DB
:103D9000A4F87E00A4F880104FF43141CC20A4F8A0
:103DA0007E10A4F88000491C0020A4F87E10A4F81E
:103DB00080004FF436410520A4F87E10A4F880005E
:103DC0004FF437417020A4F87E10A4F88000491CFD
:103DD000A4F87E10A4F880004FF438400121A4F824
:103DE0007E00A4F88010411C0320A4F87E10A4F8E3
:103DF0008000491CA4F87E10A4F88000481C032110
:103E0000A4F87E00A4F880104FF43C410220A4F8EE
:103E10007E10A4F88000491C0020A4F87E10A4F8AD
:103E20008000481C0021A4F87E00A4F880104FF404
:103E30004941D020A4F87E10A4F88000491C02203B
:103E4000A4F87E10A4F88000491C5020A4F87E102D
:103E5000A4F88000491CA4F87E10A4F88000491C36
:103E6000A4F87E10A4F880004FF454510020A4F868
:103E70007E10A4F880004FF468515520A4F87E10FD
:103E8000A4F880004FF48850ADF80000BDF80000A1
:103E9000ADF80000BDF80000A4F87E00782007F01F
:103EA0008BFA4FF42450ADF80000BDF80000ADF8D7
:103EB0000000BDF80000A4F87E0005F0A7BA834614
:103EC000ADF80000BDF80000ADF80000BDF800003E
:103ED000A4F87E00142007F031FAD020ADF80000DD
:103EE000BDF80000ADF80000BDF80000A4F87E00A9
:103EF0000720ADF80000BDF80000ADF80000BDF8E7
:103F00000000A4F880004220ADF80000BDF80000D9
:103F1000ADF80000BDF80000A4F880001D20ADF849
:103F20000000BDF80000ADF80000BDF80000A4F8E6
:103F30008000D120ADF80000BDF80000ADF8000011
:103F4000BDF80000A4F87E00ADF80050BDF80000F8
:103F5000ADF80000BDF80000A4F880001A20ADF80C
:103F60000000BDF80000ADF80000BDF80000A4F8A6
:103F700080000920ADF80000BDF80000ADF8000099
:103F8000BDF80000A4F88000D220ADF80000BDF814
:103F90000000ADF80000BDF80000A4F87E00ADF808
:103FA0000060BDF80000ADF80000BDF80000A4F806
:103FB00080002220ADF80000BDF80000ADF8000040
:103FC000BDF80000A4F88000C020ADF80000BDF8E6
:103FD0000000ADF80000BDF80000A4F87E0010203D
:103FE000ADF80000BDF80000ADF80000BDF800001D
:103FF000A4F880003B20ADF80000BDF80000ADF84B
:104000000000BDF80000A4F88000ADF80050BDF835
:104010000000ADF80000BDF80000A4F88000ADF885
:1040200000A0BDF80000ADF80000BDF80000A4F845
:104030008000ADF800B0BDF80000ADF80000BDF89C
:104040000000A4F88000C520ADF80000BDF8000015
:10405000ADF80000BDF80000A4F87E00ADF80070D7
:10406000BDF80000ADF80000BDF80000A4F8800025
:10407000C820ADF80000BDF80000ADF80000BDF8A4
:104080000000A4F87E00ADF80050BDF80000ADF8C7
:104090000000BDF80000A4F880002520ADF8000065
:1040A000BDF80010ADF80010BDF80010A4F88010A5
:1040B0002121ADF80010BDF80010ADF80010BDF8DA
:1040C0000010A4F88010ADF80090BDF80010ADF815
:1040D0000010BDF80010A4F88010ADF80050BDF835
:1040E0000010ADF80010BDF80010A4F880100A21EF
:1040F000ADF80010BDF80010ADF80010BDF80010CC
:10410000A4F880106521ADF80010BDF80010ADF8DE
:104110000010BDF80010A4F88010ADF80000BDF844
:104120000000ADF80000BDF80000A4F88000772082
:10413000ADF80000BDF80000ADF80000BDF80000CB
:10414000A4F880005020ADF80000BDF80000ADF8E4
:104150000000BDF80000A4F880000F20ADF80000BA
:10416000BDF80000ADF80000BDF80000A4F8800024
:10417000ADF80050BDF80000ADF80000BDF800003B
:10418000A4F88000F820ADF80000BDF80000ADF8FC
:104190000000BDF80000A4F87E00ADF80060BDF896
:1041A0000000ADF80000BDF80000A4F88000FE207B
:1041B000ADF80000BDF80000ADF80000BDF800004B
:1041C000A4F87E00ADF80050BDF80000ADF8000086
:1041D000BDF80000A4F88000ADF800A0BDF8000014
:1041E000ADF80000BDF80000A4F880002020ADF874
:1041F0000000BDF80000ADF80000BDF80000A4F814
:104200007E003620ADF80000BDF80000ADF80000DB
:10421000BDF80000A4F87E000820ADF80000BDF84D
:104220000000ADF80000BDF80000A4F880003A20BE
:10423000ADF80000BDF80000ADF80000BDF80000CA
:10424000A4F87E005520ADF80000BDF80000ADF8E0
:104250000000BDF80000A4F880002B20ADF800009D
:10426000BDF80000ADF80000BDF80000A4F87E0025
:10427000ADF80050BDF80000ADF80000BDF800003A
:10428000A4F88000ADF80050BDF80000ADF80000C3
:10429000BDF80000A4F88000ADF80060BDF8000093
:1042A000ADF80000BDF80000A4F880003F20ADF894
:1042B0000000BDF80000ADF80000BDF80000A4F853
:1042C0008000ADF80080BDF80000ADF80000BDF83A
:1042D0000000A4F87E00ADF80050BDF80000ADF875
:1042E0000000BDF80000A4F88000ADF80050BDF853
:1042F0000000ADF80000BDF80000A4F88000ADF8A3
:104300000060BDF80000ADF80000BDF80000A4F8A2
:104310008000DF20ADF80000BDF80000ADF800001F
:10432000BDF80000A4F88000782007F007F82920E5
:10433000ADF80000BDF80000ADF80000BDF80000C9
:10434000A4F87E0005F062B8ED22ADF80020BDF8BB
:104350000020ADF80020BDF80020A4F87E20ADF8C4
:104360000060BDF80020ADF80020BDF80020A4F8E2
:104370008020FE22ADF80020BDF80020ADF800201E
:10438000BDF80020A4F88020EE22ADF80020BDF892
:104390000020ADF80020BDF80020A4F87E20DE2229
:1043A000ADF80020BDF80020ADF80020BDF80020D9
:1043B000A4F880202122ADF80020BDF80030ADF82F
:1043C0000030BDF80030A4F88030F123ADF80030A3
:1043D000BDF80030ADF80030BDF80030A4F87E30F4
:1043E0000123ADF80030BDF80030ADF80030BDF865
:1043F0000030A4F88030DF23ADF80030BDF8003085
:10440000ADF80030BDF80030A4F87E301023ADF8D0
:104410000030BDF80030ADF80030BDF80030A4F831
:104420008030C423ADF80030BDF80030ADF8003066
:10443000BDF80030A4F87E308F23ADF80030BDF811
:104440000030ADF80030BDF80030A4F88030C6234D
:10445000ADF80030BDF80030ADF80030BDF80030E8
:10446000A4F87E30ADF80050BDF80030ADF8003053
:10447000BDF80030A4F88030E221ADF80010BDF89E
:104480000030ADF80030BDF80030A4F88030ADF851
:104490000010BDF80030ADF80030BDF80030A4F8D1
:1044A0008030ADF80010BDF80010ADF80010BDF878
:1044B0000010A4F88010BF21ADF80010BDF8001066
:1044C000ADF80010BDF80010A4F87E10AA21ADF8D8
:1044D0000010BDF80010ADF80010BDF80010A4F8F1
:1044E0008010B021ADF80010BDF80010ADF800103C
:1044F000BDF80010A4F87E100D21ADF80010BDF835
:104500000030ADF80030BDF80030A4F88030ADF8D0
:104510000050BDF80030ADF80030BDF80030A4F810
:104520008030ADF80010BDF80010ADF80010BDF8F7
:104530000010A4F88010ADF80050BDF80010ADF8E0
:104540000010BDF80010A4F880101120ADF8000094
:10455000BDF80000ADF80000BDF80000A4F8800030
:10456000ADF80050BDF80000ADF80000BDF8000047
:10457000A4F880001920ADF80000BDF80000ADF8E7
:104580000000BDF80000A4F88000ADF80050BDF8B0
:104590000000ADF80000BDF80000A4F88000ADF800
:1045A0000020BDF80000ADF80000BDF80000A4F840
:1045B0008000ADF80050BDF80000ADF80000BDF877
:1045C0000000A4F880002D20ADF80000BDF8000028
:1045D000ADF80000BDF80000A4F88000ADF8005070
:1045E000BDF80000ADF80000BDF80000A4F88000A0
:1045F0003D20ADF80000BDF80000ADF80000BDF8AA
:104600000000A4F88000ADF80050BDF80000ADF83F
:104610000000BDF80000A4F880005D20ADF80000A7
:10462000BDF80010ADF80010BDF80010A4F880101F
:10463000ADF80050BDF80010ADF80010BDF8001046
:10464000A4F88010ADF80000BDF80000ADF800003F
:10465000BDF80000A4F88000ADF80050BDF80000DF
:10466000ADF80000BDF80000A4F88000ADF800C06F
:10467000BDF80000ADF80000BDF80000A4F87E0011
:104680008020ADF80000BDF80000ADF80000BDF8D6
:104690000000A4F88000ADF80050BDF80000ADF8AF
:1046A0000000BDF80000A4F880008B21ADF80010D8
:1046B000BDF80000ADF80000BDF80000A4F88000CF
:1046C000ADF80050BDF80000ADF80000BDF80000E6
:1046D000A4F880009622ADF80020BDF80000ADF8E7
:1046E0000000BDF80000A4F88000ADF80050BDF84F
:1046F0000000ADF80000BDF80000A4F88000B22072
:10470000ADF80000BDF80000ADF80000BDF80000F5
:10471000A4F87E00ADF80050BDF80000ADF8000030
:10472000BDF80000A4F88000ADF80050BDF800000E
:10473000ADF80000BDF800302046A4F88030022318
:10474000ADF80030BDF800C0ADF800C0BDF800C045
:10475000A4F880C0ADF80050BDF800C0ADF800C0AE
:10476000BDF800C0A4F880C0ADF80070BDF800C06E
:10477000ADF800C0BDF800C0A0F880C0ADF8005092
:10478000BDF800C0ADF800C0BDF800C0A0F880C002
:104790004FF0B30CADF800C0BDF800C0ADF800C0DC
:1047A000BDF800C0A0F87EC0ADF80050BDF800C054
:1047B000ADF800C0BDF800C0A0F880C0ADF8005052
:1047C000BDF800C0ADF800C0BDF800C0A0F880C0C2
:1047D000ADF80050BDF800C0ADF800C0BDF800C095
:1047E000A0F880C0ADF80050BDF800C0ADF800C022
:1047F000BDF800C0A0F880C0ADF80050BDF800C002
:10480000ADF800C0BDF800C0A0F880C0ADF8005001
:10481000BDF800C0ADF800C0BDF800C0A0F880C071
:10482000ADF80050BDF800C0ADF800C0BDF800C044
:10483000A0F880C0ADF80050BDF800C0ADF800C0D1
:10484000BDF800C0A0F880C0ADF80050BDF800C0B1
:10485000ADF800C0BDF800C0A0F880C0ADF80050B1
:10486000BDF800C0ADF800C0BDF800C0A0F880C021
:10487000ADF80050BDF800C0ADF800C0BDF800C0F4
:10488000A0F880C0ADF80050BDF800C0ADF800C081
:10489000BDF800C0A0F880C0ADF80050BDF800C061
:1048A000ADF800C0BDF800C0A0F880C0ADF8005061
:1048B000BDF800C0ADF800C0BDF800C0A0F880C0D1
:1048C000ADF80050BDF800C0ADF800C0BDF800C0A4
:1048D000A0F880C0ADF80050BDF800C0ADF800C031
:1048E000BDF800C0A0F880C0ADF80050BDF800C011
:1048F000ADF800C0BDF800C0A0F880C0ADF8005011
:10490000BDF800C0ADF800C0BDF800C0A0F880C080
:10491000ADF80050BDF800C0ADF800C0BDF800C053
:10492000A0F880C0ADF80050BDF800C0ADF800C0E0
:10493000BDF800C0A0F880C0ADF80050BDF800C0C0
:10494000ADF800C0BDF800C0A0F880C0ADF80050C0
:10495000BDF800C0ADF800C0BDF800C0A0F880C030
:10496000ADF80050BDF800C0ADF800C0BDF800C003
:10497000A0F880C0ADF80050BDF800C0ADF800C090
:10498000BDF800C0A0F880C04FF0B40CADF800C076
:10499000BDF800C0ADF800C0BDF800C0A0F87EC0F2
:1049A000ADF80010BDF80010ADF80010BDF8001013
:1049B000A0F88010ADF80050BDF80010ADF8001060
:1049C000BDF80010A0F88010ADF80020BDF8001070
:1049D000ADF80010BDF80010A0F88010ADF8005040
:1049E000BDF80010ADF80010BDF80010A0F8801060
:1049F000A121ADF80010BDF80010ADF80010BDF811
:104A00000010A0F88010ADF80050BDF80010ADF80F
:104A10000010BDF80010A0F88010B521ADF800100E
:104A2000BDF80010ADF80010BDF80010A0F87E1021
:104A3000ADF80030BDF80010ADF80010BDF8001062
:104A4000A0F88010ADF80050BDF80010ADF80010CF
:104A5000BDF80010A0F88010ADF80070BDF800108F
:104A6000ADF80010BDF80010A0F88010ADF80050AF
:104A7000BDF80010ADF80010BDF80010A0F88010CF
:104A80007146ADF800E0BDF80020ADF80020BDF89B
:104A90000020A0F88020ADF80050BDF80020ADF84F
:104AA0000020BDF80020A0F88020B622ADF800203C
:104AB000BDF80020ADF80020BDF80020A0F87E2051
:104AC000ADF80050BDF80020ADF80020BDF8002082
:104AD000A0F88020ADF80050BDF80020ADF800200F
:104AE000BDF80020A0F88020B722ADF80020BDF866
:104AF0000020ADF80020BDF80020A0F87E20ADF821
:104B00000050BDF80020ADF80020BDF80020A0F84E
:104B10008020ADF80050BDF80020ADF80020BDF8B1
:104B20000020A0F880203F22ADF80020BDF8002032
:104B3000ADF80020BDF80020A0F88020ADF80050AE
:104B4000BDF80020ADF80020BDF80020A0F88020BE
:104B50005E22ADF80020BDF80020ADF80020BDF8C1
:104B60000020A0F88020ADF80050BDF80020ADF87E
:104B70000020BDF80020A0F880206422ADF80020BD
:104B8000BDF80020ADF80020BDF80020A0F880207E
:104B9000ADF80050BDF80020ADF80020BDF80020B1
:104BA000A0F880208C22ADF80020BDF80020ADF8E0
:104BB0000020BDF80020A0F88020ADF80050BDF81E
:104BC0000020ADF80020BDF80020A0F88020AC2225
:104BD000ADF80020BDF80020ADF80020BDF80020A1
:104BE000A0F88020ADF80050BDF80020ADF80020FE
:104BF000BDF80020A0F88020DC22ADF80020BDF830
:104C00000030ADF80030BDF80030A0F88030ADF8CD
:104C10000050BDF80030ADF80030BDF80030A0F80D
:104C200080307023ADF80030BDF80030ADF80030B2
:104C3000BDF80030A0F88030ADF80050BDF800306D
:104C4000ADF80030BDF80030A0F880309023ADF80A
:104C50000030BDF80030ADF80030BDF80030A0F8ED
:104C60008030ADF80050BDF80030ADF80030BDF830
:104C70000030A0F88030EB23ADF80030BDF80030F4
:104C8000ADF80030BDF80030A0F88030ADF800502D
:104C9000BDF80030ADF80030BDF80030A0F880302D
:104CA000ADF80020BDF80020ADF80020BDF80020D0
:104CB000A0F88020ADF80050BDF80020ADF800202D
:104CC000BDF80020A0F88020B822ADF80020BDF883
:104CD0000020ADF80020BDF80020A0F87E20ADF83F
:104CE0000050BDF80020ADF80020BDF80020A0F86D
:104CF0008020ADF80050BDF80020ADF80020BDF8D0
:104D00000020A0F88020ADF80050BDF80020ADF8DC
:104D10000020BDF80020A0F88020ADF80050BDF8BC
:104D20000020ADF80020BDF80020A0F88020ADF8EC
:104D30000050BDF80020ADF80020BDF80020A0F81C
:104D40008020ADF80050BDF80020ADF80020BDF87F
:104D50000020A0F88020ADF80050BDF80020ADF88C
:104D60000020BDF80020A0F88020ADF80050BDF86C
:104D70000020ADF80020BDF80020A0F88020BA2265
:104D8000ADF80020BDF80020ADF80020BDF80020EF
:104D9000A0F87E204FF0240AADF800A0BDF8002056
:104DA000ADF80020BDF80020A0F88020ADF800503C
:104DB000BDF80020ADF80020BDF80020A0F880204C
:104DC000ADF80050BDF80020ADF80020BDF800207F
:104DD000A0F88020ADF80050BDF80020ADF800200C
:104DE000BDF80020A0F88020C122ADF80020BDF859
:104DF0000020ADF80020BDF80020A0F87E20202281
:104E0000ADF80020BDF80020ADF80020BDF800206E
:104E1000A0F88020ADF80050BDF80020ADF80020CB
:104E2000BDF80020A0F880205422ADF80020BDF885
:104E30000020ADF80020BDF80020A0F88020ADF8DB
:104E40000050BDF80020ADF80020BDF80020A0F80B
:104E50008020FF22ADF80020BDF80020ADF8002032
:104E6000BDF80020A0F88020ADF80050BDF800206B
:104E7000ADF80020BDF80020A0F88020C222ADF8D7
:104E80000020BDF80020ADF80020BDF80020A0F8FB
:104E90007E200A22ADF80020BDF80020ADF80020E9
:104EA000BDF80020A0F88020ADF80050BDF800202B
:104EB000ADF80020BDF80020A0F88020ADF800106B
:104EC000BDF80010ADF80010BDF80010A0F880107B
:104ED000ADF80050BDF80010ADF80010BDF800109E
:104EE000A0F88010C321ADF80010BDF80010ADF897
:104EF0000010BDF80010A0F87E103C22ADF8002094
:104F0000BDF80010ADF80010BDF80010A0F880103A
:104F1000ADF80050BDF80010ADF80010BDF800105D
:104F2000A0F880103A21ADF80010BDF80010ADF8DF
:104F30000010BDF80010A0F88010ADF80050BDF8CA
:104F40000010ADF80010BDF80010A0F88010392155
:104F5000ADF80010BDF80010ADF80010BDF800105D
:104F6000A0F88010ADF80050BDF80010ADF80010AA
:104F7000BDF80010A0F880103721ADF80010BDF882
:104F80000010ADF80010BDF80010A0F88010ADF8CA
:104F90000050BDF80010ADF80010BDF80010A0F8EA
:104FA0008010ADF80020BDF80010ADF80010BDF87D
:104FB0000010A0F88010ADF80050BDF80010ADF85A
:104FC0000010BDF80010A0F880103623ADF80030B6
:104FD000BDF80010ADF80010BDF80010A0F880106A
:104FE000ADF80050BDF80010ADF80010BDF800108D
:104FF000A0F880103221ADF80010BDF800C0ADF867
:1050000000C0BDF800C0A0F880C0ADF80050BDF8E9
:1050100000C0ADF800C0BDF800C0A0F880C04FF0DF
:105020002F0EADF800E0BDF800C0ADF800C0BDF82F
:1050300000C0A0F880C0ADF80050BDF800C0ADF8C9
:1050400000C0BDF800C0A0F880C04FF02C0CADF837
:1050500000C0BDF800C0ADF800C0BDF800C0A0F8A9
:1050600080C0ADF80050BDF800C0ADF800C0BDF87C
:1050700000C0A0F880C04FF0290CADF800C0BDF80A
:105080000070ADF80070BDF80070A0F88070ADF849
:105090000050BDF80070ADF80070BDF80070A0F8C9
:1050A00080704FF0260BADF800B0BDF80070ADF881
:1050B0000070BDF80070A0F88070ADF80050BDF829
:1050C0000070ADF80070BDF80070A0F88070242763
:1050D000ADF80070BDF80070ADF80070BDF800705C
:1050E000A0F88070ADF80050BDF80070ADF8007009
:1050F000BDF80070A0F880702427ADF80070BDF8EE
:105100000070ADF80070BDF80070A0F88070ADF8C8
:105110000050BDF80070ADF80070BDF80070A0F848
:1051200080702327ADF80070BDF800A0ADF800A096
:10513000BDF800A0A0F880A0ADF80050BDF800A018
:10514000ADF800A0BDF800A0A0F880A0ADF8002048
:10515000BDF80020ADF80020BDF80020A0F88020A8
:10516000ADF80050BDF80020ADF80020BDF80020DB
:10517000A0F88020ADF80030BDF80020ADF8002088
:10518000BDF80020A0F88020ADF80050BDF8002048
:10519000ADF80020BDF80020A0F88020ADF8001088
:1051A000BDF80020ADF80020BDF80020A0F8802058
:1051B000ADF80050BDF80020ADF80020BDF800208B
:1051C000A0F88020ADF800E0BDF80020ADF8002088
:1051D000BDF80020A0F88020ADF80050BDF80020F8
:1051E000ADF80020BDF80020A0F880202C22ADF8FA
:1051F0000020BDF80020ADF80020BDF80020A0F888
:105200008020ADF80050BDF80020ADF80020BDF8BA
:105210000020A0F88020ADF800C0BDF80020ADF857
:105220000020BDF80020A0F88020ADF80050BDF8A7
:105230000020ADF80020BDF80020A0F88020ADF8D7
:1052400000B0BDF80020ADF80020BDF80020A0F8A7
:105250008020ADF80050BDF80020ADF80020BDF86A
:105260000020A0F880202422ADF80020BDF8002006
:10527000ADF80020BDF80020A0F88020ADF8005067
:10528000BDF80020ADF80020BDF80020A0F8802077
:105290002422ADF80020BDF80020ADF80020BDF8B4
:1052A0000020A0F88020ADF80050BDF80020ADF837
:1052B0000020BDF80020A0F880202322ADF80020B7
:1052C000BDF80020ADF80020BDF80020A0F8802037
:1052D000ADF80050BDF80020ADF80020BDF800206A
:1052E000A0F88020C423ADF80030BDF80020ADF850
:1052F0000020BDF80020A0F87E206222ADF800203A
:10530000BDF80020ADF80020BDF80020A0F88020F6
:10531000ADF80050BDF80020ADF80020BDF8002029
:10532000A0F880200522ADF80020BDF80020ADF8DF
:105330000020BDF80020A0F88020ADF80050BDF896
:105340000020ADF80020BDF80020A0F880208422C5
:10535000ADF80020BDF80020ADF80020BDF8002019
:10536000A0F88020ADF80050BDF80020ADF8002076
:10537000BDF80020A0F88020F022ADF80020BDF894
:105380000020ADF80020BDF80020A0F88020ADF886
:105390000050BDF80020ADF80020BDF80020A0F8B6
:1053A00080201822ADF80020BDF80020ADF80020C4
:1053B000BDF80020A0F88020ADF80050BDF8002016
:1053C000ADF80020BDF80020A0F88020A422ADF8A0
:1053D0000020BDF80020ADF80020BDF80020A0F8A6
:1053E0008020ADF80050BDF80020ADF80020BDF8D9
:1053F0000020A0F880201822ADF80020BDF8002081
:10540000ADF80020BDF80020A0F88020ADF80050D5
:10541000BDF80020ADF80020BDF80020A0F88020E5
:105420005022ADF80020BDF80020ADF80020BDF8F6
:105430000020A0F88020ADF80050BDF80020ADF8A5
:105440000020BDF80020A0F880200C22ADF800203C
:10545000BDF80020ADF80020BDF80020A0F88020A5
:10546000ADF80050BDF80020ADF80020BDF80020D8
:10547000A0F880204FF0170CADF800C0BDF8002058
:10548000ADF80020BDF80020A0F88020ADF8005055
:10549000BDF80020ADF80020BDF80020A0F8802065
:1054A0009522ADF80020BDF80020ADF80020BDF831
:1054B0000020A0F88020ADF80050BDF80020ADF825
:1054C0000020BDF80020A0F88020F322ADF80020D5
:1054D000BDF80070ADF80070BDF80070A0F88070E5
:1054E000ADF80050BDF80070ADF80070BDF8007068
:1054F000A0F88070E627ADF80070BDF80070ADF838
:105500000070BDF80070A0F88070ADF80050BDF8D4
:105510000070ADF80070BDF80070A0F88070C5276D
:10552000ADF80070BDF80070ADF80070BDF8007007
:10553000A0F87E70ADF80010BDF80010ADF80010B6
:10554000BDF80010A0F88010ADF80050BDF80010B4
:10555000ADF80010BDF80010A0F880104421ADF89F
:105560000010BDF80010ADF80010BDF80010A0F854
:105570008010ADF80050BDF80010ADF80010BDF877
:105580000010A0F880106521ADF80010BDF80010E3
:10559000ADF80010BDF80010A0F88010ADF8005074
:1055A000BDF80010ADF80010BDF80010A0F8801094
:1055B0007621ADF80010BDF80010ADF80010BDF870
:1055C0000010A0F88010ADF80050BDF80010ADF844
:1055D0000010BDF80010A0F880108821ADF8001070
:1055E000BDF80010ADF80010BDF80010A0F8801054
:1055F000ADF80050BDF80010ADF80010BDF8001077
:10560000A0F88010C621ADF80010BDF80010ADF86C
:105610000010BDF80010A0F87E102021ADF8001099
:10562000BDF80010ADF80010BDF80010A0F8801013
:10563000ADF80050BDF80010ADF80010BDF8001036
:10564000A0F88010ADF800C0BDF80010ADF8001053
:10565000BDF80010A0F88010ADF80050BDF80010A3
:10566000ADF80010BDF80010A0F88010ADF8006093
:10567000BDF80010ADF80010BDF80010A0F88010C3
:10568000ADF80050BDF80010ADF80010BDF80010E6
:10569000A0F88010C721ADF80010BDF80010ADF8DB
:1056A0000010BDF80010A0F87E10ADF80050BDF855
:1056B0000010ADF80010BDF80010A0F88010ADF893
:1056C0000050BDF80010ADF80010BDF80010A0F8B3
:1056D0008010ADF80050BDF80010ADF80010BDF816
:1056E0000010A0F88010ADF80050BDF80010ADF823
:1056F0000010BDF80010A0F88010C821ADF800100F
:10570000BDF80010ADF80010BDF80010A0F87E1034
:10571000ADF80050BDF80010ADF80010BDF8001055
:10572000A0F88010ADF80050BDF80010ADF80010E2
:10573000BDF80010A0F88010ADF80050BDF80010C2
:10574000ADF80010BDF80010A0F88010ADF80050C2
:10575000BDF80010ADF80010BDF80010A0F88010E2
:10576000C921ADF80010BDF80010ADF80010BDF86B
:105770000010A0F87E10ADF80050BDF80010ADF894
:105780000010BDF80010A0F88010ADF80050BDF872
:105790000010ADF80010BDF80010A0F88010ADF8B2
:1057A0000050BDF80010ADF80010BDF80010A0F8D2
:1057B0008010ADF80050BDF80010ADF80010BDF835
:1057C0000010A0F88010ADF80050BDF80010ADF842
:1057D0000010BDF80010A0F88010ADF80050BDF822
:1057E0000010ADF80010BDF80010A0F88010ADF862
:1057F0000050BDF80010ADF80010BDF80010A0F882
:105800008010ADF80050BDF80010ADF80010BDF8E4
:105810000010A0F88010ADF80050BDF80010ADF8F1
:105820000010BDF80010A0F88010ADF80050BDF8D1
:105830000010ADF80010BDF80010A0F88010ADF811
:105840000050BDF80010ADF80010BDF80010A0F831
:105850008010ADF80050BDF80010ADF80010BDF894
:105860000010A0F88010ADF80050BDF80010ADF8A1
:105870000010BDF80010A0F88010ADF80050BDF881
:105880000010ADF80010BDF80010A0F88010ADF8C1
:105890000050BDF80010ADF80010BDF80010A0F8E1
:1058A0008010ADF80050BDF80010ADF80010BDF844
:1058B0000010A0F88010E021ADF80010BDF800C085
:1058C000ADF800C0BDF800C0A0F87EC04FF0160CC7
:1058D000ADF800C0BDF800C0ADF800C0BDF800C014
:1058E000A0F880C0ADF80050BDF800C0ADF800C011
:1058F000BDF800C0A0F880C04FF01C0EADF800E06D
:10590000BDF800C0ADF800C0BDF800C0A0F880C070
:10591000ADF80050BDF800C0ADF800C0BDF800C043
:10592000A0F880C04FF0210CADF800C0BDF800C059
:10593000ADF800C0BDF800C0A0F880C0ADF80050C0
:10594000BDF800C0ADF800C0BDF800C0A0F880C030
:105950004FF0360CADF800C0BDF80070ADF8007027
:10596000BDF80070A0F88070ADF80050BDF8007070
:10597000ADF80070BDF80070A0F880704627ADF853
:105980000070BDF80070ADF80070BDF80070A0F8B0
:105990008070ADF80050BDF80070ADF80070BDF833
:1059A0000070A0F880704FF0520BADF800B0BDF859
:1059B0000070ADF80070BDF80070A0F88070ADF810
:1059C0000050BDF80070ADF80070BDF80070A0F890
:1059D00080704FF06409ADF80090BDF80070ADF82C
:1059E0000070BDF80070A0F88070ADF80050BDF8F0
:1059F0000070ADF80070BDF80070A0F880704FF036
:105A00007A0AADF800A0BDF80070ADF80070BDF8DE
:105A10000070A0F88070ADF80050BDF80070ADF8CF
:105A20000070BDF80070A0F880708B27ADF8007092
:105A3000BDF80070ADF80070BDF80070A0F880707F
:105A4000ADF80050BDF80070ADF80070BDF8007002
:105A5000A0F880709927ADF80070BDF80070ADF81F
:105A60000070BDF80070A0F88070ADF80050BDF86F
:105A70000070ADF80070BDF80070A0F88070A82725
:105A8000ADF80070BDF80070ADF80070BDF80070A2
:105A9000A0F88070ADF80050BDF80070ADF800704F
:105AA000BDF80070A0F88070B927ADF80070BDF89F
:105AB0000070ADF80070BDF80070A0F88070ADF80F
:105AC0000050BDF80070ADF80070BDF80070A0F88F
:105AD0008070ADF80030BDF80070ADF80070BDF812
